{
     "abi": [
          {
               "type": "function",
               "name": "approve",
               "inputs": [
                    {
                         "name": "_id",
                         "type": "uint256",
                         "internalType": "uint256"
                    }
               ],
               "outputs": [],
               "stateMutability": "nonpayable"
          },
          {
               "type": "function",
               "name": "createEscrow",
               "inputs": [
                    {
                         "name": "_seller",
                         "type": "address",
                         "internalType": "address"
                    }
               ],
               "outputs": [
                    {
                         "name": "",
                         "type": "uint256",
                         "internalType": "uint256"
                    }
               ],
               "stateMutability": "payable"
          },
          {
               "type": "function",
               "name": "escrowcount",
               "inputs": [],
               "outputs": [
                    {
                         "name": "",
                         "type": "uint256",
                         "internalType": "uint256"
                    }
               ],
               "stateMutability": "view"
          },
          {
               "type": "function",
               "name": "escrows",
               "inputs": [
                    {
                         "name": "",
                         "type": "uint256",
                         "internalType": "uint256"
                    }
               ],
               "outputs": [
                    {
                         "name": "buyer",
                         "type": "address",
                         "internalType": "address"
                    },
                    {
                         "name": "seller",
                         "type": "address",
                         "internalType": "address"
                    },
                    {
                         "name": "amount",
                         "type": "uint256",
                         "internalType": "uint256"
                    },
                    {
                         "name": "buyerApproved",
                         "type": "bool",
                         "internalType": "bool"
                    },
                    {
                         "name": "sellerApproved",
                         "type": "bool",
                         "internalType": "bool"
                    },
                    {
                         "name": "state",
                         "type": "uint8",
                         "internalType": "enum Escrow.EscrowState"
                    }
               ],
               "stateMutability": "view"
          },
          {
               "type": "event",
               "name": "Approved",
               "inputs": [
                    {
                         "name": "id",
                         "type": "uint256",
                         "indexed": true,
                         "internalType": "uint256"
                    },
                    {
                         "name": "approver",
                         "type": "address",
                         "indexed": false,
                         "internalType": "address"
                    }
               ],
               "anonymous": false
          },
          {
               "type": "event",
               "name": "EscrowCreated",
               "inputs": [
                    {
                         "name": "id",
                         "type": "uint256",
                         "indexed": true,
                         "internalType": "uint256"
                    },
                    {
                         "name": "buyer",
                         "type": "address",
                         "indexed": false,
                         "internalType": "address"
                    },
                    {
                         "name": "seller",
                         "type": "address",
                         "indexed": false,
                         "internalType": "address"
                    },
                    {
                         "name": "amount",
                         "type": "uint256",
                         "indexed": false,
                         "internalType": "uint256"
                    }
               ],
               "anonymous": false
          },
          {
               "type": "event",
               "name": "FundsReleased",
               "inputs": [
                    {
                         "name": "id",
                         "type": "uint256",
                         "indexed": true,
                         "internalType": "uint256"
                    },
                    {
                         "name": "seller",
                         "type": "address",
                         "indexed": false,
                         "internalType": "address"
                    },
                    {
                         "name": "amount",
                         "type": "uint256",
                         "indexed": false,
                         "internalType": "uint256"
                    }
               ],
               "anonymous": false
          }
     ],
     "bytecode": {
          "object": "0x6080604052348015600e575f5ffd5b50610c868061001c5f395ff3fe60806040526004361061003e575f3560e01c8063012f52ee146100425780638b80876414610083578063b759f954146100ad578063f6a8419e146100d5575b5f5ffd5b34801561004d575f5ffd5b50610068600480360381019061006391906107e4565b610105565b60405161007a969594939291906108ea565b60405180910390f35b34801561008e575f5ffd5b506100976101a1565b6040516100a49190610949565b60405180910390f35b3480156100b8575f5ffd5b506100d360048036038101906100ce91906107e4565b6101a6565b005b6100ef60048036038101906100ea919061098c565b6103fe565b6040516100fc9190610949565b60405180910390f35b6001602052805f5260405f205f91509050805f015f9054906101000a900473ffffffffffffffffffffffffffffffffffffffff1690806001015f9054906101000a900473ffffffffffffffffffffffffffffffffffffffff1690806002015490806003015f9054906101000a900460ff16908060030160019054906101000a900460ff16908060030160029054906101000a900460ff16905086565b5f5481565b5f60015f8381526020019081526020015f2090505f60028111156101cd576101cc610877565b5b8160030160029054906101000a900460ff1660028111156101f1576101f0610877565b5b14610231576040517f08c379a000000000000000000000000000000000000000000000000000000000815260040161022890610a11565b60405180910390fd5b805f015f9054906101000a900473ffffffffffffffffffffffffffffffffffffffff1673ffffffffffffffffffffffffffffffffffffffff163373ffffffffffffffffffffffffffffffffffffffff16036102a7576001816003015f6101000a81548160ff02191690831515021790555061035b565b806001015f9054906101000a900473ffffffffffffffffffffffffffffffffffffffff1673ffffffffffffffffffffffffffffffffffffffff163373ffffffffffffffffffffffffffffffffffffffff160361031f5760018160030160016101000a81548160ff02191690831515021790555061035a565b6040517f08c379a000000000000000000000000000000000000000000000000000000000815260040161035190610a79565b60405180910390fd5b5b817f7b39c92a7e1a86e846edaeff6eba715a046352c596794c2a374269c126a997683360405161038b9190610a97565b60405180910390a2806003015f9054906101000a900460ff1680156103be57508060030160019054906101000a900460ff165b156103fa5760018160030160026101000a81548160ff021916908360028111156103eb576103ea610877565b5b02179055506103f982610624565b5b5050565b5f5f3411610441576040517f08c379a000000000000000000000000000000000000000000000000000000000815260040161043890610afa565b60405180910390fd5b5f5f81548092919061045290610b45565b91905055506040518060c001604052803373ffffffffffffffffffffffffffffffffffffffff1681526020018373ffffffffffffffffffffffffffffffffffffffff1681526020013481526020015f151581526020015f151581526020015f60028111156104c3576104c2610877565b5b81525060015f5f5481526020019081526020015f205f820151815f015f6101000a81548173ffffffffffffffffffffffffffffffffffffffff021916908373ffffffffffffffffffffffffffffffffffffffff1602179055506020820151816001015f6101000a81548173ffffffffffffffffffffffffffffffffffffffff021916908373ffffffffffffffffffffffffffffffffffffffff160217905550604082015181600201556060820151816003015f6101000a81548160ff02191690831515021790555060808201518160030160016101000a81548160ff02191690831515021790555060a08201518160030160026101000a81548160ff021916908360028111156105d6576105d5610877565b5b02179055509050505f547f9405ad0a6208539879349284d71265479b1623846f70303da1f9890d6e8c10a733843460405161061393929190610b8c565b60405180910390a25f549050919050565b5f60015f8381526020019081526020015f2090506001600281111561064c5761064b610877565b5b8160030160029054906101000a900460ff1660028111156106705761066f610877565b5b146106b0576040517f08c379a00000000000000000000000000000000000000000000000000000000081526004016106a790610c0b565b60405180910390fd5b60028160030160026101000a81548160ff021916908360028111156106d8576106d7610877565b5b0217905550806001015f9054906101000a900473ffffffffffffffffffffffffffffffffffffffff1673ffffffffffffffffffffffffffffffffffffffff166108fc826002015490811502906040515f60405180830381858888f19350505050158015610747573d5f5f3e3d5ffd5b50817f6e3c6096795c8298a218b2cfb8bde42726ff7c9a3d27b4d3ba41ab7f74feb5fb826001015f9054906101000a900473ffffffffffffffffffffffffffffffffffffffff1683600201546040516107a1929190610c29565b60405180910390a25050565b5f5ffd5b5f819050919050565b6107c3816107b1565b81146107cd575f5ffd5b50565b5f813590506107de816107ba565b92915050565b5f602082840312156107f9576107f86107ad565b5b5f610806848285016107d0565b91505092915050565b5f73ffffffffffffffffffffffffffffffffffffffff82169050919050565b5f6108388261080f565b9050919050565b6108488161082e565b82525050565b610857816107b1565b82525050565b5f8115159050919050565b6108718161085d565b82525050565b7f4e487b71000000000000000000000000000000000000000000000000000000005f52602160045260245ffd5b600381106108b5576108b4610877565b5b50565b5f8190506108c5826108a4565b919050565b5f6108d4826108b8565b9050919050565b6108e4816108ca565b82525050565b5f60c0820190506108fd5f83018961083f565b61090a602083018861083f565b610917604083018761084e565b6109246060830186610868565b6109316080830185610868565b61093e60a08301846108db565b979650505050505050565b5f60208201905061095c5f83018461084e565b92915050565b61096b8161082e565b8114610975575f5ffd5b50565b5f8135905061098681610962565b92915050565b5f602082840312156109a1576109a06107ad565b5b5f6109ae84828501610978565b91505092915050565b5f82825260208201905092915050565b7f457363726f77206e6f742070656e64696e6700000000000000000000000000005f82015250565b5f6109fb6012836109b7565b9150610a06826109c7565b602082019050919050565b5f6020820190508181035f830152610a28816109ef565b9050919050565b7f4e6f74207061727469636970616e7400000000000000000000000000000000005f82015250565b5f610a63600f836109b7565b9150610a6e82610a2f565b602082019050919050565b5f6020820190508181035f830152610a9081610a57565b9050919050565b5f602082019050610aaa5f83018461083f565b92915050565b7f416d6f756e74206d757374206265203e203000000000000000000000000000005f82015250565b5f610ae46012836109b7565b9150610aef82610ab0565b602082019050919050565b5f6020820190508181035f830152610b1181610ad8565b9050919050565b7f4e487b71000000000000000000000000000000000000000000000000000000005f52601160045260245ffd5b5f610b4f826107b1565b91507fffffffffffffffffffffffffffffffffffffffffffffffffffffffffffffffff8203610b8157610b80610b18565b5b600182019050919050565b5f606082019050610b9f5f83018661083f565b610bac602083018561083f565b610bb9604083018461084e565b949350505050565b7f4e6f7420617070726f76656420796574000000000000000000000000000000005f82015250565b5f610bf56010836109b7565b9150610c0082610bc1565b602082019050919050565b5f6020820190508181035f830152610c2281610be9565b9050919050565b5f604082019050610c3c5f83018561083f565b610c49602083018461084e565b939250505056fea2646970667358221220a5724f1d500f88cedb2f907043e012a1ffa9f95fa70b83f778df57315cb3e52564736f6c634300081d0033",
          "linkReferences": {}
     },
     "methodIdentifiers": {
          "approve(uint256)": "b759f954",
          "createEscrow(address)": "f6a8419e",
          "escrowcount()": "8b808764",
          "escrows(uint256)": "012f52ee"
     },
     "id": 16
}