{
     "abi": [
          {
               "type": "function",
               "name": "getTransactionCount",
               "inputs": [
                    {
                         "name": "user",
                         "type": "address",
                         "internalType": "address"
                    }
               ],
               "outputs": [
                    {
                         "name": "",
                         "type": "uint256",
                         "internalType": "uint256"
                    }
               ],
               "stateMutability": "view"
          },
          {
               "type": "function",
               "name": "getTransactionDetails",
               "inputs": [
                    {
                         "name": "user",
                         "type": "address",
                         "internalType": "address"
                    },
                    {
                         "name": "index",
                         "type": "uint256",
                         "internalType": "uint256"
                    }
               ],
               "outputs": [
                    {
                         "name": "",
                         "type": "address",
                         "internalType": "address"
                    },
                    {
                         "name": "",
                         "type": "address",
                         "internalType": "address"
                    },
                    {
                         "name": "",
                         "type": "uint256",
                         "internalType": "uint256"
                    },
                    {
                         "name": "",
                         "type": "uint256",
                         "internalType": "uint256"
                    }
               ],
               "stateMutability": "view"
          },
          {
               "type": "function",
               "name": "getTransactions",
               "inputs": [
                    {
                         "name": "user",
                         "type": "address",
                         "internalType": "address"
                    }
               ],
               "outputs": [
                    {
                         "name": "",
                         "type": "tuple[]",
                         "internalType": "struct Transaction.TransactionData[]",
                         "components": [
                              {
                                   "name": "sender",
                                   "type": "address",
                                   "internalType": "address"
                              },
                              {
                                   "name": "receiver",
                                   "type": "address",
                                   "internalType": "address"
                              },
                              {
                                   "name": "amount",
                                   "type": "uint256",
                                   "internalType": "uint256"
                              },
                              {
                                   "name": "timestamp",
                                   "type": "uint256",
                                   "internalType": "uint256"
                              }
                         ]
                    }
               ],
               "stateMutability": "view"
          },
          {
               "type": "function",
               "name": "makeTransaction",
               "inputs": [
                    {
                         "name": "receiver",
                         "type": "address",
                         "internalType": "address payable"
                    }
               ],
               "outputs": [],
               "stateMutability": "payable"
          },
          {
               "type": "function",
               "name": "totalTransactions",
               "inputs": [],
               "outputs": [
                    {
                         "name": "",
                         "type": "uint256",
                         "internalType": "uint256"
                    }
               ],
               "stateMutability": "view"
          },
          {
               "type": "event",
               "name": "TransactionRecorded",
               "inputs": [
                    {
                         "name": "sender",
                         "type": "address",
                         "indexed": true,
                         "internalType": "address"
                    },
                    {
                         "name": "receiver",
                         "type": "address",
                         "indexed": true,
                         "internalType": "address"
                    },
                    {
                         "name": "amount",
                         "type": "uint256",
                         "indexed": false,
                         "internalType": "uint256"
                    },
                    {
                         "name": "timestamp",
                         "type": "uint256",
                         "indexed": false,
                         "internalType": "uint256"
                    }
               ],
               "anonymous": false
          }
     ],
     "bytecode": {
          "object": "0x6080604052348015600e575f5ffd5b50610eef8061001c5f395ff3fe608060405260043610610049575f3560e01c80630f8cda201461004d57806323ca0cd21461008957806329bf041f146100c5578063b9a60038146100e1578063c18e8d561461010b575b5f5ffd5b348015610058575f5ffd5b50610073600480360381019061006e919061094b565b61014a565b6040516100809190610a98565b60405180910390f35b348015610094575f5ffd5b506100af60048036038101906100aa919061094b565b61029f565b6040516100bc9190610ac7565b60405180910390f35b6100df60048036038101906100da9190610b1b565b6102e7565b005b3480156100ec575f5ffd5b506100f5610718565b6040516101029190610ac7565b60405180910390f35b348015610116575f5ffd5b50610131600480360381019061012c9190610b70565b61071e565b6040516101419493929190610bbd565b60405180910390f35b60605f5f8373ffffffffffffffffffffffffffffffffffffffff1673ffffffffffffffffffffffffffffffffffffffff1681526020019081526020015f20805480602002602001604051908101604052809291908181526020015f905b82821015610294578382905f5260205f2090600402016040518060800160405290815f82015f9054906101000a900473ffffffffffffffffffffffffffffffffffffffff1673ffffffffffffffffffffffffffffffffffffffff1673ffffffffffffffffffffffffffffffffffffffff168152602001600182015f9054906101000a900473ffffffffffffffffffffffffffffffffffffffff1673ffffffffffffffffffffffffffffffffffffffff1673ffffffffffffffffffffffffffffffffffffffff16815260200160028201548152602001600382015481525050815260200190600101906101a7565b505050509050919050565b5f5f5f8373ffffffffffffffffffffffffffffffffffffffff1673ffffffffffffffffffffffffffffffffffffffff1681526020019081526020015f20805490509050919050565b5f73ffffffffffffffffffffffffffffffffffffffff168173ffffffffffffffffffffffffffffffffffffffff1603610355576040517f08c379a000000000000000000000000000000000000000000000000000000000815260040161034c90610c5a565b60405180910390fd5b5f3411610397576040517f08c379a000000000000000000000000000000000000000000000000000000000815260040161038e90610cc2565b60405180910390fd5b5f8173ffffffffffffffffffffffffffffffffffffffff16346040516103bc90610d0d565b5f6040518083038185875af1925050503d805f81146103f6576040519150601f19603f3d011682016040523d82523d5f602084013e6103fb565b606091505b505090508061043f576040517f08c379a000000000000000000000000000000000000000000000000000000000815260040161043690610d6b565b60405180910390fd5b5f60405180608001604052803373ffffffffffffffffffffffffffffffffffffffff1681526020018473ffffffffffffffffffffffffffffffffffffffff1681526020013481526020014281525090505f5f3373ffffffffffffffffffffffffffffffffffffffff1673ffffffffffffffffffffffffffffffffffffffff1681526020019081526020015f2081908060018154018082558091505060019003905f5260205f2090600402015f909190919091505f820151815f015f6101000a81548173ffffffffffffffffffffffffffffffffffffffff021916908373ffffffffffffffffffffffffffffffffffffffff1602179055506020820151816001015f6101000a81548173ffffffffffffffffffffffffffffffffffffffff021916908373ffffffffffffffffffffffffffffffffffffffff160217905550604082015181600201556060820151816003015550505f5f8473ffffffffffffffffffffffffffffffffffffffff1673ffffffffffffffffffffffffffffffffffffffff1681526020019081526020015f2081908060018154018082558091505060019003905f5260205f2090600402015f909190919091505f820151815f015f6101000a81548173ffffffffffffffffffffffffffffffffffffffff021916908373ffffffffffffffffffffffffffffffffffffffff1602179055506020820151816001015f6101000a81548173ffffffffffffffffffffffffffffffffffffffff021916908373ffffffffffffffffffffffffffffffffffffffff1602179055506040820151816002015560608201518160030155505060015f8154809291906106a790610db6565b91905055508273ffffffffffffffffffffffffffffffffffffffff163373ffffffffffffffffffffffffffffffffffffffff167fa8748c52a921be2a4c654a712d28d92cc72cdf91cea2d11b407d25e9ea18251e344260405161070b929190610dfd565b60405180910390a3505050565b60015481565b5f5f5f5f5f5f8773ffffffffffffffffffffffffffffffffffffffff1673ffffffffffffffffffffffffffffffffffffffff1681526020019081526020015f208054905085106107a3576040517f08c379a000000000000000000000000000000000000000000000000000000000815260040161079a90610e6e565b60405180910390fd5b5f5f5f8873ffffffffffffffffffffffffffffffffffffffff1673ffffffffffffffffffffffffffffffffffffffff1681526020019081526020015f2086815481106107f2576107f1610e8c565b5b905f5260205f2090600402016040518060800160405290815f82015f9054906101000a900473ffffffffffffffffffffffffffffffffffffffff1673ffffffffffffffffffffffffffffffffffffffff1673ffffffffffffffffffffffffffffffffffffffff168152602001600182015f9054906101000a900473ffffffffffffffffffffffffffffffffffffffff1673ffffffffffffffffffffffffffffffffffffffff1673ffffffffffffffffffffffffffffffffffffffff168152602001600282015481526020016003820154815250509050805f015181602001518260400151836060015194509450945094505092959194509250565b5f5ffd5b5f73ffffffffffffffffffffffffffffffffffffffff82169050919050565b5f61091a826108f1565b9050919050565b61092a81610910565b8114610934575f5ffd5b50565b5f8135905061094581610921565b92915050565b5f602082840312156109605761095f6108ed565b5b5f61096d84828501610937565b91505092915050565b5f81519050919050565b5f82825260208201905092915050565b5f819050602082019050919050565b6109a881610910565b82525050565b5f819050919050565b6109c0816109ae565b82525050565b608082015f8201516109da5f85018261099f565b5060208201516109ed602085018261099f565b506040820151610a0060408501826109b7565b506060820151610a1360608501826109b7565b50505050565b5f610a2483836109c6565b60808301905092915050565b5f602082019050919050565b5f610a4682610976565b610a508185610980565b9350610a5b83610990565b805f5b83811015610a8b578151610a728882610a19565b9750610a7d83610a30565b925050600181019050610a5e565b5085935050505092915050565b5f6020820190508181035f830152610ab08184610a3c565b905092915050565b610ac1816109ae565b82525050565b5f602082019050610ada5f830184610ab8565b92915050565b5f610aea826108f1565b9050919050565b610afa81610ae0565b8114610b04575f5ffd5b50565b5f81359050610b1581610af1565b92915050565b5f60208284031215610b3057610b2f6108ed565b5b5f610b3d84828501610b07565b91505092915050565b610b4f816109ae565b8114610b59575f5ffd5b50565b5f81359050610b6a81610b46565b92915050565b5f5f60408385031215610b8657610b856108ed565b5b5f610b9385828601610937565b9250506020610ba485828601610b5c565b9150509250929050565b610bb781610910565b82525050565b5f608082019050610bd05f830187610bae565b610bdd6020830186610bae565b610bea6040830185610ab8565b610bf76060830184610ab8565b95945050505050565b5f82825260208201905092915050565b7f496e76616c6964207265636569766572206164647265737300000000000000005f82015250565b5f610c44601883610c00565b9150610c4f82610c10565b602082019050919050565b5f6020820190508181035f830152610c7181610c38565b9050919050565b7f416d6f756e74206d7573742062652067726561746572207468616e207a65726f5f82015250565b5f610cac602083610c00565b9150610cb782610c78565b602082019050919050565b5f6020820190508181035f830152610cd981610ca0565b9050919050565b5f81905092915050565b50565b5f610cf85f83610ce0565b9150610d0382610cea565b5f82019050919050565b5f610d1782610ced565b9150819050919050565b7f5472616e73666572206661696c656400000000000000000000000000000000005f82015250565b5f610d55600f83610c00565b9150610d6082610d21565b602082019050919050565b5f6020820190508181035f830152610d8281610d49565b9050919050565b7f4e487b71000000000000000000000000000000000000000000000000000000005f52601160045260245ffd5b5f610dc0826109ae565b91507fffffffffffffffffffffffffffffffffffffffffffffffffffffffffffffffff8203610df257610df1610d89565b5b600182019050919050565b5f604082019050610e105f830185610ab8565b610e1d6020830184610ab8565b9392505050565b7f5472616e73616374696f6e20696e646578206f7574206f6620626f756e6473005f82015250565b5f610e58601f83610c00565b9150610e6382610e24565b602082019050919050565b5f6020820190508181035f830152610e8581610e4c565b9050919050565b7f4e487b71000000000000000000000000000000000000000000000000000000005f52603260045260245ffdfea2646970667358221220c1bba3eacc544c28a9ce9f5f7b7633324f11bf1acbf6676d1957e1b86b78c4f364736f6c634300081d0033",
          "linkReferences": {}
     },
     "methodIdentifiers": {
          "getTransactionCount(address)": "23ca0cd2",
          "getTransactionDetails(address,uint256)": "c18e8d56",
          "getTransactions(address)": "0f8cda20",
          "makeTransaction(address)": "29bf041f",
          "totalTransactions()": "b9a60038"
     },
     "id": 16
}